:100000001EC1000039C1000037C1000035C1000029
:1000100033C1000031C100002FC100002DC100001C
:100020002BC1000029C100000C943D1A0C94091B3F
:100030000C94B91521C100001FC100001DC10000B2
:100040001BC1000019C1000017C1000015C100004C
:1000500013C100000C9430160FC100000DC1000048
:100060000BC1000009C1000007C1000005C100006C
:1000700003C1000001C10000FFC00000FDC000007E
:10008000FBC00000F9C00000F7C00000F5C0000090
:10009000F3C00000F1C00000EFC00000EDC00000A0
:1000A000EBC00000E9C00000E7C000005F00600096
:1000B00061005C005D005E0059005A005B001203A5
:1000C0006D006100630072006F00700061006400E9
:1000D00000001E03480075006E0067002D004300FD
:1000E000680069003900370030003100300034000A
:1000F00000000403090409023B00020100A0FA0900
:100100000400000103010100092111010001224442
:100110000007058103080001090401000103000034
:100120000009211101000122B60007058203200009
:10013000011201000200000008EDFE0000000101B4
:1001400002000105010902A10185020901A10005C2
:100150000919012908150025019508750181020575
:1001600001093009311581257F950275088106093D
:10017000381581257F950175088106050C0A38021E
:100180001581257F950175088106C0C0050109808C
:10019000A101850319012AB700150126B7009501B1
:1001A00075108100C0050C0901A101850419012AFF
:1001B000A002150126A002950175108100C005015D
:1001C0000906A1018506050719E029E715002501A3
:1001D0009508750181020507190029EF1500250111
:1001E00095F075018102050819012905950575012C
:1001F0009102950175039101C005010906A1010550
:100200000719E029E7150025019508750181029578
:1002100001750881010507190029FF150026FF0057
:1002200095067508810005081901290515002501A5
:10023000950575019102950175039101C000112486
:100240001FBECFEFDAE0DEBFCDBF11E0A0E0B1E02E
:10025000EAE3FBE302C005900D92AC38B107D9F791
:1002600022E0ACE8B1E001C01D92A338B207E1F78B
:100270000E94300F0C94491DC3CE811115C063300C
:1002800098F4433088F470E0FB01EE0FFF1FE60F97
:10029000F71FE40FF11DEE0FFF1FE455FF4F85918F
:1002A0009591282F822F089521E090E0FBCFE5CF94
:1002B000089581E0089581E00895FBCF089581E0DD
:1002C000089581E00895FDCF089508950895FDCF24
:1002D000089508950895A6E0B0E0E1E7F1E00C94F8
:1002E000C51C49835A839E833091930189819A81E9
:1002F000311117C03E81311589F0211579F006D5ED
:10030000182F682F89819A81DBD469817A81812FA6
:100310000E947B0C2696E3E00C94E11CE4D4182F99
:10032000F4CFF4D469817A81F3CFFC01262F408188
:1003300051816281738184819581CDCFCF93DF9389
:10034000EC0161E0F2DFBE01B6DF811529F061E06A
:10035000CE01EBDFBE01B1DFDF91CF9108950F93A6
:100360001F93CF93DF93EC0160E0DFDF8C01BE01D0
:10037000ADDFBE01C801ABDFDF91CF911F910F91BF
:1003800008950F931F93CF93DF93EC0161E0CDDFCE
:100390008C01BE0194DF811106C080E0DF91CF9116
:1003A0001F910F910895BE01C8018DDF8115A9F33A
:1003B000BE01C8010E940B13811579F3BE01C8016B
:1003C0000E94850F811549F3BE01C8010E945E0F8E
:1003D000811519F3BE01C8010E947E0D8115E9F255
:1003E000BE01C8010E94900D8115B9F2BE01C8017D
:1003F0000E94AA0DD3CF21E030E002C0220F331FAC
:100400008A95E2F7C90197C3CF93C82F81E090E0A6
:100410000C2E02C0880F991F0A94E2F70E94A50AC9
:100420008C2FE9DFCF91089581E0089581E0089550
:10043000FBCF0895CF93C82F2DD38C2FF7DF8C2FB0
:10044000F7DF8FEF94E32CE0815090402040E1F7FC
:1004500000C00000CF91089581E0ECDF0C945416A9
:1004600080E0E8DF0C94651634DF0E94611517C048
:1004700018D030DF0C94651581E008950895CF936E
:10048000DF93D82FF9DFC82F811511F08D2FF6DFFC
:100490008C2FDF91CF9108950895F1CF089580E0DA
:1004A000FCCF0E945913F9CFCF930E945913C82F44
:1004B00080918E018C1771F0C0938E010E942416DA
:1004C00060938F01709390018093910190939201BA
:1004D0008C2FE3DFCF910895ADE0B0E0E2E7F2E0EA
:1004E0000C94C61C488759876A877B878C879D87B1
:1004F00091111AD71F8286E0FE0138969E012F5F68
:100500003F4FD90101900D928A95E1F78D818111BC
:100510000CC029813A814B815C816D817E818F8104
:100520004ED62D96E2E00C94E21CCE01019606DF39
:100530008111EFCFF6CFFC012481213019F48081A5
:10054000918117C40895611521F00E94DE100C946A
:1005500093110E941E11FBCFCF93C82F811581F0FC
:100560008450813A78F48C2F0E940D14811521F06B
:100570008C2F0E94AA1463D78C2F0E9493145FD7EC
:10058000CF9108958C2F805E883048F481E0C1FDC2
:1005900084E0C0FD880FC2FD8295A7D6F0CF8C2FD6
:1005A000855A833030F48C2F8452990B0E94991312
:1005B000E7CFEC2FE85AEB3150F4F0E0EE0FFF1FDD
:1005C000E65EFE4F808191810E94C013D9CF8C2FAF
:1005D0008D5C8331A8F661E08C2FB5DFD1CF81151A
:1005E00059F1982F9450913A18F40E94AA1427C7F1
:1005F000982F905E983050F4982F81E091FD84E020
:1006000090FD880F92FD829576D6F1CF982F955A5E
:10061000933020F480E090E00C949913982F985A2E
:100620009B3120F480E090E00C94C013982F9D5CE7
:10063000933110F460E087CF08951F93CF93DF9339
:10064000182FEB0189DF209731F4812FC8DFDF916C
:10065000CF911F9108958FE99FE00197F1F700C0B6
:1006600000002197F0CF60E570E0893311F060E081
:1006700070E0E3CF811511F038D6E1C608958115F9
:1006800011F039D6DCC60895A0E0B0E0EAE4F3E06A
:100690000C94C01C6C01D62FC72FFC01158106815C
:1006A00002950F7017D6E82E8115E9F0E12E11158D
:1006B000D1F08C2F807F803461F08D2F805E883068
:1006C000E0F08C2F807E803221F4D230B0F0011522
:1006D000A1F080916B0282FF10C082E0D4D6FAD5DF
:1006E00091E08927E82EEC2FE295EF70C03C78F579
:1006F000F0E0E55BF24E0C94B01CE12CF4CF0C2F33
:100700000F70C03110F00295007F111581F00115B6
:1007100049F08D2F805E883010F0D11105C0802FF8
:10072000E4D58DD68D2F40C0802FF0D5FACF8D2FF8
:1007300056DF011561F08D2F805E883010F0D111E9
:1007400003C0802FD8D502C0802FE6D578D6E1141B
:1007500009F4B3C0BBD580FDB0C0F6011582B0D599
:100760001AD2C60168D1ACD524D2A7C08C2F8F7005
:10077000F82EC07FC03219F0F29480EFF822D13009
:1007800038F079F1111509F438C00115C9F0CACF54
:1007900080916B0282FD10C0111541F0F11419F027
:1007A0008F2DA3D54CD680E0D7DED1CF80E017DFE8
:1007B000F11469F28F2DC6CF111551F0013018F4E4
:1007C0008F2D58DFC4CF09F0C2CF8F2DC1D5BFCF39
:1007D0000111BDCF8F2D53DF8F2DC5D58F2DAAD5FC
:1007E000B6CF111521F0063008F0B1CFE9CF0530B2
:1007F00008F0ADCF8F2D43DFAACF0115D9F3D93340
:1008000049F48FEF97EE23E0815090402040E1F7CC
:1008100000C000008D2FE3DE9ACF8C2F8695869541
:100820008370813060F009F092CF8D2F9C2F9370F0
:10083000111102C080E090E00E94C01388CF8D2F7C
:100840009C2F9370111102C080E090E00E949913D8
:100850007ECF612F8D2F77DE7ACF8C2F8370C1F5FD
:10086000111128C04D2F429546954770440F440FF3
:100870002D2F2F7030E0042E02C0220F331F0A9458
:10088000E2F780E090E0D4FF09C08FE090E002C082
:10089000880F991F4A95E2F780959095C695C69561
:1008A000C370822B932BC23079F0C33079F0C13002
:1008B00049F04AD10E945913F0DDCDB7DEB7E8E028
:1008C0000C94DC1C3AD1F6CF46D1F4CF34D1F2CF20
:1008D000111559F1C0FFEECF4D2F42954695477047
:1008E000440F440F2D2F2F7030E0042E02C0220F32
:1008F000331F0A94E2F780E090E0D4FF09C08FE054
:1009000090E002C0880F991F4A95E2F78095909574
:10091000C695C695C370822B932BC23061F0C3304D
:1009200061F0C13031F06AD1C5CF823008F4C2CF56
:10093000D3CF5DD1BFCF69D1BDCF1AD1BBCFCF70DF
:10094000111529F08C2F27D18D2F94DEB3CF8D2F49
:1009500096DE8C2F2ED1AECFD23F31F168F4D03F4E
:10096000C1F0D13F89F0111509F43EC0011509F419
:1009700038C08D2FF1DD9ECFD33FE1F0D43F99F702
:1009800080916B0282FD1EC08C2F8F71111511F3A7
:100990000FC0111539F0053008F08CCF8C2F8F71F6
:1009A00018D188CF0630F8CF8C2F8F711111D2CF8C
:1009B000F2D080CF111521F08C2F8F71E3D07ACF38
:1009C000DED078CF111529F063E08C2F8F7144D5DC
:1009D00071CF81E058D5023008F46CCF82E053D556
:1009E00069CF8C2F8F71E4CF011571F0D93349F4A1
:1009F0008FEF97EE23E0815090402040E1F700C058
:100A000000008D2FECDD56CF8C2F8F71A3CF0F936D
:100A10001F93CF93DF93EC01688179818D81B2D1EF
:100A20008C01FAD087D0B801CE012EDEDF91CF91B4
:100A30001F910F910895CF93DF93EC018C81811565
:100A400081F0CE019EDC81110FC044D4811549F0A4
:100A50008D81811531F080916B0282FF02C082E0AE
:100A600012D5DF91CF910895CE01D1DFCE0177DC91
:100A7000F8CF80E090E00E94991380E090E00E941F
:100A8000C01352D4DCD40E94AC110C9493110E9478
:100A9000C114EFCF38D4FBCF282F92959F7096309A
:100AA00099F060F4925F9F70923030F4203FB1F083
:100AB00038F481E0283E38F080E008959A5FF3CF63
:100AC00081E0243FC9F7089591E0813F09F090E06B
:100AD00081E0283E08F080E0892B089581E00895A8
:100AE000FC012481211521F08081918142D1D4CF54
:100AF00080E00895A6E0B0E0E0E8F5E00C94C61CC4
:100B00002696E2E00C94E21CA7E0B0E0EAE8F5E00B
:100B10000C94C61C2796E2E00C94E21C0895FECFCC
:100B20000895FDCF0895FADFFCDF80939E01909336
:100B30009F0108950895F7CF089520919E01309167
:100B40009F01822B932BEFCF20919E0130919F012B
:100B500082239323E8CF20919E0130919F01822729
:100B60009327E1CFDBCF0895FDCF0895D7CF089528
:100B7000FDDFFADF80939C0190939D01089580E052
:100B800090E0F6CF21E030E002C0220F331F8A95BB
:100B9000E2F7C901EDCF21E030E002C0220F331FA0
:100BA0008A95E2F780919C0190919D01822B932B75
:100BB000DFCF21E030E002C0220F331F8A95E2F739
:100BC0002095309580919C0190919D0182239323E3
:100BD000CFCF21E030E002C0220F331F8A95E2F729
:100BE00080919C0190919D0182279327C1CF2091F4
:100BF0009C0130919D01822B932BBACF20919C01B7
:100C000030919D0182239323B3CF20919C01309199
:100C10009D0182279327ACCF0895CF93C1E061FD5A
:100C2000C4E060FDCC0F62FDC29593E076956795B8
:100C30009A95E1F7660F771F660F771F460F571FCC
:100C4000FA0140E050E090E06191DF019C01042E48
:100C500002C0369527950A94E2F72695220B26279F
:100C60002C2326272E934F5F5F4F4430510561F7A9
:100C7000CF910895A82FA77023E0969587952A9580
:100C8000E1F7880F991F880F991F680F791FFB01E3
:100C900040E050E080E0219130E00A2E02C036951D
:100CA00027950A94E2F72170042E01C0220F0A94BE
:100CB000EAF7822B4F5F5F4F4430510561F708958B
:100CC000E62F933078F4833068F4292F30E0B901AF
:100CD000660F771F620F731F680F711D44E951E0A3
:100CE0008E2F9BCF0895933078F4833068F4292FAA
:100CF00030E0A901440F551F240F351F64E971E04E
:100D0000820F932F911DB6CF80E00895CF92DF928E
:100D1000FF920F931F93CF93DF936C0100919C017F
:100D200010919D0180919E0190919F01082B192B9C
:100D3000CFE0D0E081E090E00C2E02C0880F991F38
:100D40000A94E2F780239123892B61F4219790F78D
:100D5000F12C8F2DDF91CF911F910F91FF90DF909C
:100D6000CF900895FC2EB6018C2FD0D5019771F34A
:100D7000F0CFCF93DF93EC01C9DFBE01C7D5DF9180
:100D8000CF9108951F93CF93DF93EB01909193013F
:100D9000911531F0CB01EDDFDF91CF911F910895D7
:100DA000811551F0CB01B2DF182F682FCE0188DFFB
:100DB000BE01812FABD5F0CFCB0195DF182FF8CF37
:100DC0000F931F930091A0018091A101801303C094
:100DD0001F910F91089587E0089FF0011124EE55AF
:100DE000FE4F2081318142815381648175818681EA
:100DF0008BDE0F5F1F4F0770E7CF2091DA01309134
:100E0000DB014091DC015091DD016091DE017091C8
:100E1000DF018091E00178CE8091E001803170F4B3
:100E20008091DF01811551F0E091A0012091A10195
:100E30003091DB014091DA012E1301C00895BF010A
:100E400087E0E89FF0011124DF01AE55BE4F1496F4
:100E50008C911497811549F111968C9111978313F8
:100E600024C08C91841321C015968C911597811103
:100E70001CC012968D919D91A091DC01B091DD0175
:100E80008A1B9B0B883C910580F48091E0018F7058
:100E900080618093E001E855FE4F80818F70806112
:100EA00080838AED91E0C7DD8BCF6F5F7F4FFB01C1
:100EB000E770C2CFE091A0019091A101E91302C0B7
:100EC00080E008959F0157E0E59FF0011124EE5561
:100ED000FE4F5181561306C05081581303C05581EF
:100EE000541305C02F5F3F4FF901E770E7CF81E052
:100EF00008958F929F92AF92BF92DF92EF92FF92EE
:100F00000F931F93CF93DF93CDB7DEB72D970FB617
:100F1000F894DEBF0FBECDBF8C0186E0F801DE0184
:100F2000189601900D928A95E1F7F801F580848179
:100F30009AED892E91E0992E9091DE01911117C0C2
:100F4000811509F4EFC0F11409F42EC1C801C8DD00
:100F5000811509F429C187E0F801D40101900D92AF
:100F60008A95E1F7C401E7DA57DF47DFDBC0E080AD
:100F7000A280B380D090DF012091DC013091DD01AF
:100F8000A501421B530BD11409F4CFC0483C5105B5
:100F900008F09EC0811509F4C5C09091DB019180D5
:100FA0008091E001803108F065C0991226C09091CF
:100FB000DA019E1122C0F11057C08F7080618093BA
:100FC000E0011BDF8AED91E036DD8091E001F80160
:100FD0008683F12C8F2D2D960FB6F894DEBF0FBEB1
:100FE000CDBFDF91CF911F910F91FF90EF90DF90D8
:100FF000BF90AF909F908F900895F11035C040E062
:10100000692D8E2D57DF40E0692D8E2D53DFF82E90
:101010008111DFCF88859985ACDE292F22952F702D
:10102000903450F49F70223078F0911591F0F801CF
:101030009681903170F4CECF2A5F2F70223070F0FD
:10104000C801F9DCFD2CC6CF911519F0811509F402
:10105000C1CF805E883008F4BDCFF2CF803F08F466
:10106000B9CF815F8330F7CF8091E00181608093B9
:10107000E001AFCF991207C09091DA019E1103C031
:10108000F11409F473C0C8012BDD811509F48CC07B
:10109000F11409F489C08091E001803280F0209140
:1010A000DA013091DB0129833A83AB82BC829091D3
:1010B000DE019D831E828F83CE010196BCDC87E01A
:1010C000F801AAEDB1E001900D928A95E1F74CCFBD
:1010D0009091E001903188F4488559856A857B8537
:1010E0008C859D8507DD8AED91E0A5DCF40187E024
:1010F00011928A95E9F781DE6CCF811599F02091E4
:10110000DB0181812813BFCF8091DA018E11BBCF23
:10111000F110B9CF9683C8018EDCF40187E01192FB
:101120008A95E9F7FF24F39455CF483C510508F020
:101130003EC08115B9F3F114B9F19091DB018181C1
:10114000981329C08091DA018E1125C08091E001A9
:1011500080FD18C08031B0F08683807F803F39F0F9
:101160008681982F907F905F8F70892B8683C8012E
:1011700062DC87E0F801AAEDB1E001900D928A955A
:10118000E1F7F3CE87E0F801AAEDB1E001900D920E
:101190008A95E1F7C7CFC801A3DC811190CF809178
:1011A000E00181608093E001C80145DCBBCF488548
:1011B00059856A857B858C859D859CDC97CFAEE0C3
:1011C000B0E0E5EEF8E00C94C51C288739874A8723
:1011D0005B876C877D878E87CE0108968ADE6C855B
:1011E000811599F0611539F0288539854A855B8527
:1011F0007D858E8589DC8091A0019091A101891364
:101200003DC02E96E3E00C94E11C87E09E01285F30
:101210003F4FF90127503109D90101900D928A956C
:10122000E1F7611541F3A091A1018A2F90E0839528
:10123000877090E0AC012091A0012417150691F071
:1012400097E09A9FD0011124AE55BE4F9E012F5FAB
:101250003F4FF90101900D929A95E1F74093A1015A
:10126000AFDDC9CF17DC1092A1011092A001EAED09
:10127000F1E087E011928A95E9F7BDCF17E0189F5A
:10128000C00111248E559E4F34DE811509F4B9CF6B
:10129000E091A0011E9FF0011124EE55FE4F208128
:1012A0003181428153816481758186812DDC8091F9
:1012B000A0019091A101019687708093A0019BCF1E
:1012C00080910902869586958695089580910902F8
:1012D0008770089590910902977081E0911101C083
:1012E00080E0089580913502089590913502982B01
:1012F0009093350208958095982F80913502892327
:101300008093350208951092350208959091340229
:10131000982B9093340208958095982F80913402F1
:101320008923809334020895109234020895089519
:10133000FECF089590910A02292F282329F0809545
:10134000892380930A02F4CF08950895FECF08956B
:1013500090910B02292F2823281721F0982B909386
:101360000B02F4CF089590910B02292F282329F026
:101370008095892380930B02E9CF089580910B0219
:10138000811521F010920B0280E0E0CF0895CF93F9
:10139000C091350280913402C82B80910B028115D7
:1013A00029F0C82B0E94E7138111E8DF8C2FCF9121
:1013B0000895CF93DF93C0910201D0910301E7DF3D
:1013C0008883C0910201D091030148E050E061E0C0
:1013D00072E0CE010E94011D892B59F088E0FE01C8
:1013E000A1E0B2E001900D928A95E1F7CE010E9452
:1013F0006813DF91CF910895CF93DF93C0910001DF
:10140000D0910101C4DF8983C0910001D091010115
:1014100040E250E061EE71E0CE010E94011D892B97
:1014200059F080E2FE01A1EEB1E001900D928A95A3
:10143000E1F7CE010E947513DF91CF9108950E94CC
:101440005213811529F080916A0287FF01C0D4CF21
:10145000B0CF0895FECF089590916B0292FF0EC019
:10146000982F990F990F990F962B9093090293DB60
:1014700080910902869586958695ECCF8CCB10924B
:10148000090280E0E7CF909109028095892380933B
:101490000902282F277059F4891749F090916B029F
:1014A00092FF05C086958695869583DBE8CF0895E3
:1014B00090916B0292FB222720F9281749F080FBBC
:1014C00092F990936B028AE692E043D082E0DBCF00
:1014D000089580916B02002482FF0394802DE8CF51
:1014E00081E0E6CF80E0E4CF80E090E0BC0199C3EA
:1014F00080E090E0BC018FD3F7CFA3E0B0E0E3E859
:10150000FAE00C94C61C40D34BD31B82CE01039649
:101510005ED381E090E080939E0110929F0163D39F
:10152000198284E18A83CE0101966ED3E1DF23968E
:10153000E2E00C94E21CE1CF089538C3089525C37E
:1015400008953AC3089549C308954DC3089550C3FB
:1015500008955AC308956BC30895A6E0B0E0E3EB85
:10156000FAE00C94C41C0E9418168C01809136027B
:10157000909137028017910779F019821A820E94A0
:101580001816BC0149815A8180E090E00E946C02EB
:1015900000933602109337022696E4E00C94E01C88
:1015A0000E94241660933C0270933D0280933E0299
:1015B00090933F02609338027093390280933A020D
:1015C00090933B02089508950895FDCF08950895DE
:1015D000FEDFFBCF0895FECF08950895FEDFFBCF19
:1015E0008CE79DE04DD4F0DFF3CF81E0089581E0FA
:1015F0000895FBCF0895089508950895FCDFFCDF5A
:10160000FCCF9DDF811101C096DF80E492E099DF7D
:101610008AE692E09CDF50D496DF8DDA80919C01BF
:1016200090919D01A1CA0E940F1697D3EADF0E94F4
:1016300050130E944C02D2CFA6E0B0E0E2E2FBE001
:101640000C94BD1CD4DF81110AC087DF0E945113A6
:10165000A4D60E9454022696EBE00C94D91C8CD39D
:1016600087E6A82E82E0B82E750110E0F701008110
:10167000812FE8D21F5F133009F445C09FEFE91AAC
:10168000F90A081799F38091400281FDE1D2B1DF98
:10169000982E10E0812FD6D2F82EF50181915F01AE
:1016A000F81661F18F25D82E00E0EE24E3948D2DFD
:1016B0008E21F1F0CC24C3948F2D8E2109F4C12CFE
:1016C000911489F0602F812F0E94851581110BC024
:1016D00009831A830E941816BC0149815A8181E04E
:1016E0009C2D0E946C024C2D602F812F0E94991519
:1016F0000F5FEE0C0330D9F6F501F2921F5F133045
:1017000049F64EDFA3CF0813BECF9FCF0F931F9391
:10171000CF93DF93FDD0EC01D23508F050C0D03527
:1017200008F0C8C0C03ED10530F5CD3CD10508F069
:101730009DC0C83AD10578F4C53AD10508F093C0E8
:10174000C130D105B1F1CE010497813A910588F1FC
:10175000C0E0D0E02EC0CE01885A91094B97C0F767
:10176000C85AD0E0CC0FDD1FC05BDE4F0990D88196
:10177000C02DD4641EC0D034A8F4D03208F0ADC05F
:10178000C83ED105B0F0CE0191509F3108F78D2FA2
:1017900062D1082F8C2F90E0BBD0D02FDF71C82FE3
:1017A000D92B07C08C2F90E0B3D0DF70C82FD92B76
:1017B000D06ACE01DF91CF911F910F910895C0386B
:1017C00082E5D807B8F5C03682E5D80708F056C0DC
:1017D000C03482E5D807C8F4C03282E5D80708F0E3
:1017E00047C08C2F8695869520E2829FC0011124E8
:1017F000C37021E030E002C0220F331FCA95E2F728
:10180000E901C82BD92BDD68D4CF8C2F869586951E
:10181000877020E2829FC0011124C37021E030E074
:1018200002C0220F331FCA95E2F7E901C82BD92B5A
:10183000DC68BFCFC03C82E5D80750F48C2F8F7195
:10184000C03AD24580F5982F84EF906AEC01B1CF71
:10185000CE01805C9245809708F07ACFDC2FDF7153
:10186000C0EFD06AA6CFA497D064A3CFD065A1CF94
:101870008C2F8F71D82FC1EFD06A9BCF8C2F86957C
:101880008695877020E2829FC0011124C37021E0F9
:1018900030E002C0220F331FCA95E2F7E901C82BDE
:1018A000D92BDA6886CFD7D0982F80E09F71EC01D2
:1018B000D0627FCF8C2F8F71CED053E0CC0FDD1F45
:1018C0005A95E1F7DF70282F84FF04C090E1899FCB
:1018D00090011124C22FD0696CCF8D2F8F71BBD096
:1018E000082F8C2F90E014D0302F3F71282F392BE8
:1018F0003062E9015ECF462F733028F4633018F46C
:10190000672F0C94570180E090E00895F4DFFECE3D
:10191000803E9105D1F1C8F48133910509F481C06D
:1019200048F48932910509F471C08A32910509F4AD
:101930007FC0089589339105E1F082389105C9F09F
:101940008533910509F45DC00895843E9105D1F178
:1019500048F4823E910531F1833E910541F181EEDB
:1019600090E00895863E9105C1F1873E9105F1F121
:10197000089520916A02237009F064C020916B02DF
:1019800023FF14C089E290E0089520916A0220FDAF
:1019900045C030916B0230FF09C024FD24C083EEA6
:1019A00090E0089520916A0222FDF7CF08952091DA
:1019B0006A0222FD44C030916B0230FD43C024FF17
:1019C000F5CF11C020916B0221FFF0CF80916A0208
:1019D00084FD09C087EE90E0089520916A0223FFFC
:1019E000E5CF24FFF7CF80E090E0089520916A02D0
:1019F00023FD2BC030916B0231FFE1CF84EE90E0EC
:101A0000089520916A0225FFD1CFBCCF20916A02B0
:101A100025FD1EC020916B0223FFC8CF89E390E013
:101A2000089520916A0226FFC1CF8AE290E00895CE
:101A300020916A0226FFBACF81E390E0089582EEFA
:101A400090E0089580EE90E0089586EE90E008958D
:101A500085E390E0089590916A0292FF10C041E002
:101A6000282F2471243009F040E031E0282F28711C
:101A7000283009F030E0431711F02CE0822793FF63
:101A800010C041E0282F2471243109F040E031E0FA
:101A9000282F2871283109F030E0431711F02CE08D
:101AA000822730916B0230FF10C051E0282F217146
:101AB000213009F050E041E0282F2871283009F04A
:101AC00040E0541711F029E0822731FF10C041E0B7
:101AD000282F2171213109F040E031E0282F2871B1
:101AE000283109F030E0431711F029E0822794FFF4
:101AF00002C083FD877E089580E00895CF939C0106
:101B0000205E3245C1E02032310538F4FB01C58149
:101B1000C11103C08F710E9404028C2FCF910895D0
:101B20009C01FB018581811599F02B359CE73907D4
:101B300069F02C359CE7390721F02A353C4721F024
:101B40000895C7DC80E00895CBDCFCCFCBDCFACF76
:101B500081E008959C01FB018581811599F0213078
:101B60009CE7390761F023309CE7390739F02115EC
:101B70003C4749F40E942C0280E00895DEDC0E947C
:101B80003002FACF81E00895089580E090E00E944D
:101B9000161D9C0181E0233E3E4F09F080E0089530
:101BA00063EE7EEF80E090E00C94351D6FEF7FEFE9
:101BB00080E090E00C94351DCF93DF93EC0182E040
:101BC00090E00E940E1D8883DF91CF910895FC0163
:101BD000608182E090E00C941B1D83E090E00E9405
:101BE0000E1D90E00895682F83E090E00C941B1D7B
:101BF000CF93DF93EC0184E090E00E94161D888370
:101C00009983DF91CF910895FC016081718184E017
:101C100090E00C94351DAB01BC018FE090E00C947A
:101C20002D1DAB01BC0183E190E00C942D1D682FAC
:101C30008EE090E00C941B1D0895FECF089508954A
:101C4000FECF0895E82FF0E0E159FD4F808108951F
:101C5000089580EA8A95F1F7089500C00895F9CFB4
:101C60000895F894E82FE295EF70F0E041A18F70AD
:101C700021E001C0220F8A95EAF7922F90959423D4
:101C800091A392A1822F892B82A37894089586E64E
:101C9000E8DF87E9E6DF86ECE4DF81E9E2DF80E97F
:101CA000E0DF84E9DECFA0E0B0E0E9E5FEE00C94FF
:101CB000C01C6C01E62EC62FD0E08E0107571E4FC8
:101CC000F80180818F3F09F441C0F894E82FE29534
:101CD000EF70F0E091A18F7021E001C0220F8A9592
:101CE000EAF7892F822B81A382A12095282322A3A2
:101CF0007894B3DFA6E8B1E031E0F12C2D912F3FCD
:101D000079F0E22FE295EF70E05EF0E0808190E004
:101D10002F7002C0959587952A95E2F780FF1BC02A
:101D200080E0F82A330F81E0A938B80739F7F801C5
:101D300080818F3F09F095DF61E0F11001C060E024
:101D40008E2D8DDFF601EC0FFD1FF082CDB7DEB7D3
:101D5000E8E00C94DC1C832FE4CF99DFEFE6F2E09F
:101D600083E011928A95E9F7ECE6F2E083E01192C4
:101D70008A95E9F73AD061CFA3E0B0E0E2ECFEE06B
:101D80000C94C31CFE013196DF0183E01D928A95FD
:101D9000E9F710E00E2FFF2E612F802F9F2D83DF9C
:101DA0001F5F1330C9F743E050E0602F7F2D8CE6B2
:101DB00092E00E94011D41E0892B69F440E06FE64A
:101DC00072E08CE692E012D0182F3ADF812F239632
:101DD000E5E00C94DF1C89819A81AB8180936C02D1
:101DE00090936D02A0936E02EACF0895EF92FF9256
:101DF0000F931F93CF93DF938C017B01C42F411569
:101E000071F081E08093430213D780934102909355
:101E1000420280E0CDB7DEB7E6E00C94DE1CD09144
:101E20004302D115B1F3809141029091420291D6C3
:101E3000059778F343E050E0B801C7010E94011D07
:101E4000892B41F083E0F801D70101900D928A952A
:101E5000E1F7CD2F109243028C2FDCCFEDCB08950C
:101E600081D60E949617BCDB0E94AE17DCDB0E9475
:101E7000B7170E94BA17F2DF0E94D017BFDBF9CF65
:101E800080938C0190938D01089557CB089580E045
:101E9000D9DE8170089570DF8FEF96E721E08150E1
:101EA00090402040E1F700C0000066DFF0DF8115C0
:101EB00011F0EBDFF9C60895EECF0895CF93DF93CD
:101EC000EB0186319C47F9F40DDA9D81911591F073
:101ED0008A7A91E0811101C090E0909344028115CB
:101EE00039F085E320D5ABDA80E0DF91CF9108951A
:101EF00089E2F8CF80914402811519F085E32AD553
:101F0000F2CF89E2FCCF81E0F0CFCF93DF93EC01F9
:101F1000FB018581811509F4C8C09E013057233229
:101F2000310508F0A8C08AE692E011DBFE01E1501D
:101F3000F047E232F10520F4E95AF24E0C94B01C5D
:101F400080916A02816080936A028FC080916B02E7
:101F5000886080936B0289C080916A028260F3CFAF
:101F600080916A028460EFCF80916A028860EBCF33
:101F700080916B028160EDCF80916B028260E9CF2E
:101F800080916A028061DFCF80916A028062DBCF3C
:101F900080916A028064D7CF0E944A0580916A02CC
:101FA0008068D1CF80916A028C60CDCF80916B0226
:101FB0008360CFCF80916A028E7FC5CF80916B0204
:101FC000877FC7CF80916A028D7FBDCF80916A02E3
:101FD0008B7FB9CF80916A02877FB5CF80916B02EA
:101FE0008E7FB7CF80916B028D7FB3CF80916A02D5
:101FF0008F7EA9CF80916A028F7DA5CF80916A02E2
:102000008F7BA1CF0E944A0580916A028F779BCF78
:1020100080916A02837F97CF80916B028C7F99CFEA
:1020200090916A02892F8B7F92FF8460877F92FF55
:10203000886089CF80916B02982F909590FB80F9F2
:1020400090FB81F986CF90916A02892F8F7B96FF52
:10205000806479CF0E944A0590916A02892F97FB8C
:1020600087F9805870CF81E076DA8AE692E071DAFB
:102070000E944A0580E0DF91CF91089580E0F4CF7F
:1020800090916A02892F8F7E94FF80615CCF90913E
:102090006A02892F8E7F90FF816055CF90916B02ED
:1020A000892F877F93FF886054CF81E0E4CF382F5A
:1020B00025EB3203C001112497FF04C08058910919
:1020C000892F089580589F4FFBCF80914B0280FF4E
:1020D0000DC06091090170E0660F771F60387105CF
:1020E00088F56115710581F1862F089581FF07C07C
:1020F0006091090184E0689FB0011124EFCF82FF55
:1021000004C06091090188E0F6CF90914A029115D0
:10211000B9F06091080180910901961728F098E0C4
:10212000899FB0011124DACF899FC001112423E0D7
:10213000880F991F2A95E1F770E00E949D1CCECF71
:1021400068E0D2CF8FE7089581E0089580914B0237
:1021500080FF0CC06091050170E0759567957595DD
:1021600067956115710541F1862F089581FF06C0BD
:102170006091050170E075956795F3CF6091050159
:1021800082FD0BC0909149029115A1F0609104016C
:1021900080910501961738F0682F70E0603871055E
:1021A00000F38FE70895899FC001112470E00E9419
:1021B0009D1CF4CF61E0D8CF81E00895E82FED5C5D
:1021C000E33198F5F0E0E758F24E0C94B01C7DDF57
:1021D000819580934F02089578DFFBCF76DF81955C
:1021E00080934E02089571DFFBCFB0DF80935002E1
:1021F0000895ACDF8195FACFA9DF819580935102D4
:102200000895A4DFFBCF815D990B21E001C0220F6F
:102210008A95EAF780914D02822B80934D020895B2
:1022200080914B02816080934B02089580914B0214
:102230008260F9CF80914B028460F5CF40914E02CD
:102240008D3C59F480914F0287FF0DC010924F02D0
:10225000411559F410924A0208C08E3C81F48091D5
:102260004F0218169CF3411581F080915002909115
:102270005102892B09F056C01092490208958F3CF3
:1022800041F447FFF0CF10924E0280914F0281152A
:10229000E0CF803D19F41416B4F3E5CF90915002CD
:1022A000893D29F41916FCF610925002DCCF8A3DC4
:1022B00019F497FFD8CFF8CF909151028B3D29F4B4
:1022C00097FFD1CF10925102CECF8C3D19F4191641
:1022D000CCF3C9CF982F915D983078F4815D990B3C
:1022E00021E001C0220F8A95EAF7822F8095909114
:1022F0004D02892380934D02B6CF8D3D31F48091FC
:102300004B028E7F80934B02AECF8E3D21F48091A5
:102310004B028D7FF7CF8F3D09F0A5CF80914B0207
:102320008B7FF0CF089584D49C0190914E028091D0
:102330004F02982B21F0209347023093480290914E
:10234000500280915102982B21F020934502309346
:1023500046028CE492E0DBC1ECE4F2E086E011920C
:102360008A95E9F710924A021092490210924B02A4
:102370000895FC01828181110EC0838181110BC0FF
:102380008481811108C091E08581811101C090E0B4
:10239000892F8170089581E0FCCFA6E0B0E0E3EDE5
:1023A000F1E10C94C31C86E0ECE4F2E09E012F5FA7
:1023B0003F4FD90101900D928A95E1F710924E029C
:1023C00010924F0210925002109251028B819C8108
:1023D000892B022FF32E811581F080914702909175
:1023E0004802B7D3AC0190914A029115A1F18091B6
:1023F0000A018417150608F43BC08D819E81892B44
:1024000089F08091450290914602A3D3AC0190914E
:102410004902911509F45AC08091060184171506E6
:1024200008F462C0602F7F2D8CE492E0C2D281114B
:1024300004C08CE492E09DDF811175DF86E0E02F1F
:10244000FF2DACE4B2E001900D928A95E1F726965B
:10245000E5E00C94DF1C20910B018AE0289F90019D
:1024600011242417350748F69F5F90934A0202C053
:102470009F3FD1F71B81111551F027DE91E0111616
:102480000CF09FEF899F802D112480934E021C81B8
:10249000111551F01ADE91E011160CF09FEF899F93
:1024A000802D112480934F0280914E02811509F4F2
:1024B000A4CF10914F02111509F49FCFF8DD80933E
:1024C0004E02812FF4DD80934F0297CF20910701B8
:1024D0008AE0289F900111242417350708F0A2CF25
:1024E0009F5F9093490202C09F3FD1F71D81111554
:1024F00051F02CDE91E011160CF09FEF899F802D9A
:102500001124809350028E81182F811551F01EDE08
:1025100091E011160CF09FEF899F802D112480937C
:10252000510280915002811509F47CCF90915102A3
:10253000192F911509F476CFBADD80935002812FBF
:10254000B6DD809351026ECF0F931F93CF93DF932D
:10255000C42FD22FFC0185818115C9F0409354020C
:1025600067D380935202909353028C2F805E883001
:1025700048F481E0C1FD84E0C0FD880FC2FD829572
:102580000E943A03DF91CF911F910F91089510910E
:102590005402141333C08091520290915302D9D245
:1025A000883C910558F5CD2FC05E1D17C1F0812FD5
:1025B000805E883048F481E011FD84E010FD880FD2
:1025C00012FD82950E943F03C83048F481E0D1FD9E
:1025D00084E0D0FD880FD2FD82950E943A03802FBF
:1025E0000E94330381E0D1FD84E0D0FD880FD2FD4D
:1025F0008295C83038F60E943F03C4CF8C2F805E8E
:10260000883008F0BFCF81E0C1FD84E0C0FD880FB5
:10261000C2FD8295F0CF0F93FC01CB01E851FC473E
:10262000E730F10588F5E457F24E0C94B01C06E251
:1026300021EE41EE6AE17CE787DF80E00F910895AB
:1026400007E225EE45EE6BE17CE7F6CF06E221EEF0
:1026500040EE68E17CE7F0CF07E225EE44EE69E169
:102660007CE7EACF06E221EE42EE6CE17CE7E4CFC4
:1026700007E225EE46EE6DE17CE7DECF08E221E0E1
:1026800045EE6EE17CE7D8CFFB0185818111109288
:10269000540281E0D3CF8093590290935A02089557
:1026A00008950895EDD1982F81E0913009F080E0F0
:1026B0000895E0915902F0915A02309739F0019053
:1026C000F081E02D309711F00995089580E008958C
:1026D000E0915902F0915A02309731F00280F38173
:1026E000E02D309709F009950895E0915902F09195
:1026F0005A02309759F024813581232B39F026E096
:10270000DC012C930480F581E02D09950895E0917A
:102710005902F0915A02309759F026813781232BC4
:1027200039F022E0DC012C930680F781E02D099539
:102730000895A3E0B0E0EFE9F3E10C94C61C20910A
:1027400057023091580228173907B1F08093570289
:1027500090935802E0915902F0915A02309761F03B
:102760000084F185E02D309739F023E029838A83B6
:102770009B83CE01019609952396E2E00C94E21C1E
:10278000A3E0B0E0E6ECF3E10C94C61C2091550206
:102790003091560228173907B1F080935502909373
:1027A0005602E0915902F0915A02309761F000848C
:1027B000F185E02D309739F024E029838A839B83CB
:1027C000CE01019609952396E2E00C94E21CCF938A
:1027D000DF93C0910201D091030164DF811521F0E4
:1027E00080916A0287FD11C09E012E5F3F4F96E0E7
:1027F00080E09150F90140812F5F3F4F41118F5F81
:102800009111F7CFDF91CF91089520910001309180
:1028100001012E5F3F4F9EE1EBCFCF93C82F811177
:1028200002C080E02EC03EDF811521F080916A0257
:1028300087FD0FC08091020190910301FC01329647
:10284000089620812C17F9F03196E817F907C9F797
:10285000E8CF8C2F869586958695C03F10F7E0913E
:102860000001F0910101E80FF11D228130E0C770F5
:1028700081E001C0880FCA95EAF7282381E0232B65
:1028800081F2CF91089581E0FCCF9C01FC0132964A
:1028900080E09FEF4081461759F031969F3F19F431
:1028A000411101C0982F8F5F8630A1F79F3F09F437
:1028B0000895290F311D97FD3A95F9016283089516
:1028C000FC01329608962191261302C0DF011E9268
:1028D000E817F907C1F70895262F2695269526951E
:1028E000603F60F4820F911DFC01677021E001C020
:1028F000220F6A95EAF78281822B82830895262F20
:10290000269526952695603F68F4820F911DFC015F
:102910009DEF61FD97EF60FF959562FD9295828135
:10292000892382830895CF93C82FBCDE6C2F811535
:1029300059F080916A0287FF07C080910001909151
:102940000101CADFCF9108958091020190910301A6
:102950009CDFF8CFCF93C82FA5DE6C2F811559F0DF
:1029600080916A0287FF07C0809100019091010168
:10297000C6DFCF9108958091020190910301A0DFFD
:10298000F8CF90DE811571F080916A0287FF0AC04E
:10299000E0910001F091010132968EE111928A9549
:1029A000E9F70895E0910201F0910301329686E083
:1029B000F5CFDC01FB0111969C9111978181981351
:1029C00022C012968C911297811519F09281891369
:1029D0001AC013968C911397811519F0938189135E
:1029E00012C015968C911597811519F09581891350
:1029F0000AC014969C91911521F081E0248129133D
:102A000003C080E001C081E0817008950895FECF89
:102A100008958F5F80930F0160910C0170910D01FB
:102A200080910E0190910F01F2CF83E080930F010E
:102A300060910C0170910D0180910E0190910F0138
:102A4000E6CFE7CF089581E080930F0160910C01FC
:102A500070910D0180910E0190910F01D8CFF3CFAD
:102A6000089591E0811101C090E090930E01609172
:102A70000C0170910D0180910E0190910F01C7CF53
:102A800080910E01089580930D0160910C01709169
:102A90000D0180910E0190910F01B9CF80910D0130
:102AA000089580930C0160910C0170910D0180914B
:102AB0000E0190910F01ABCF80910C010895089504
:102AC0000895FECF089508950895F9CF08950F93BE
:102AD0001F93CF93DF93F7DF4FD9F6DF0BE512E0BB
:102AE000C0E0D0E08C2FAED8F80181938F0191E047
:102AF000811101C090E0D92BCF5FC33099F78D2FA2
:102B0000DF91CF911F910F910895E82FF0E0E55AE2
:102B1000FD4F808190E021E030E002C0220F331FA2
:102B20006A95E2F72823392381E0232B09F480E01A
:102B3000089541110DC0E82FF0E0E55AFD4F21E066
:102B400001C0220F6A95EAF720958081282320830F
:102B50000895CF93DF93EC016BD08C1B9D0BDF911D
:102B6000CF91089585B7806885BF85B7806885BF98
:102B700008951F921FB61F9211248F939F93AF93B6
:102B8000BF9380915E02811113C080917202909177
:102B90007302A0917402B09175024196A11DB11DFE
:102BA0008093720290937302A0937402B0937502A3
:102BB000BF91AF919F918F911F901FBE1F9018954D
:102BC00080917A02843031F10E94340210925E02C8
:102BD00088E190E020E40FB6F894A8958093600017
:102BE0000FBE2093600083B7817F846083BF83B76B
:102BF000816083BF7894889583B78E7F83BF0FB63B
:102C0000F894A8958091600088618093600010928C
:102C100060000FBE08950E944A050C94380282E0BD
:102C200084BD93E095BD9AEF97BD80936E000895A3
:102C30002FB7F8948091720290917302A091740260
:102C4000B09175022FBF08952FB7F894609172026A
:102C50007091730280917402909175022FBF089554
:102C600078941F921FB61F9211248F939F93AF9356
:102C7000BF938091720290917302A0917402B091FF
:102C800075020196A11DB11D80937202909373028B
:102C9000A0937402B0937502BF91AF919F918F91F1
:102CA0001F901FBE1F90189587E797E78093000835
:102CB0009093010888E19AE00FB6F894A895809364
:102CC00060000FBE90936000FFCF88E19AE00FB6DE
:102CD000F894A895809360000FBE90936000FFCF9A
:102CE0009B01BA0190917A029430D9F48F7080934D
:102CF000E9009FEF8091E80085FD06C085ED8A958B
:102D0000F1F700009150B1F78091E80085FF09C00C
:102D100040E050E0C901B6D18091E8008E77809301
:102D2000E800089543E050E0BC0182E0D9CF46E0DE
:102D300050E0BC0182E0D4CF40E250E0BC0182E030
:102D4000CFCFCF93DF93EC019BDE48E050E0BE0194
:102D500081E0C6DF88E0FE01AFE5B2E001900D92B0
:102D60008A95E1F7DF91CF910895809179028111E1
:102D700007C016D366D38091E20084608093E2009E
:102D800008951092790208955EDE81E06ACE609126
:102D9000760281E0611101C080E047CE90917A0215
:102DA00081E0943009F080E0609176024ACE42E002
:102DB00061EC81E071D242E261EC82E06DD29091EF
:102DC0007A0281E0943009F080E06091760221CEB1
:102DD00080917C02893081F148F4823009F496C0F8
:102DE000833009F457C0813041F008958A3009F4E6
:102DF00080C08B3009F468C0089580917B02813ACD
:102E000009F047C08091E800877F8093E8008091B7
:102E10007F0290918002892B59F060E080E090E081
:102E200070E07DD18091E8008B778093E800089571
:102E300068E08FE592E0F4CF80917B02813249F522
:102E400080917F0290918002029718F58091E800AE
:102E5000877F8093E8008091E80082FF16C0209170
:102E6000F3008091F200922F029731F48091F100EB
:102E7000813011F0863019F48091F10004DE8091E8
:102E8000E8008B778093E8003BC280917A02811141
:102E9000E2CF089580917B02813AD9F780917F0239
:102EA00090918002892BA9F78091E800877F809319
:102EB000E8008091E80080FFFCCFE2DD8093F10024
:102EC0008091E8008E77DECF80917B02813209F716
:102ED00080917F0290918002892BD9F68091E80041
:102EE000877F8093E8000CD280917D02BADD0C943C
:102EF0004A0580917B02813261F68091E800877FEC
:102F00008093E800FDD180917E02CBCD80917B0241
:102F1000813A09F0BECF8091E800877F8093E80076
:102F20008091E80080FFFCCFC7DDC8CF84B7877FE2
:102F300084BF0FB6F894A895809160008861809353
:102F40006000109260000FBE80E890E00FB6F89429
:102F500080936100909361000FBE81CD21D271D228
:102F6000E2EEF0E08081846080837894CDC480E1DB
:102F700091E091CB80917A02853029F480917A0298
:102F8000853011F048CE08951BDEA1DD8115B1F327
:102F900080917802811591F35FD00E944A05EECFAF
:102FA00008959A01409181025091820200C0492FF8
:102FB00050E043305105C9F070F441305105E9F15A
:102FC0004230510571F48BE390E046EF50E0F90197
:102FD00040835183089541325105E9F04232510551
:102FE00019F180E090E040E0F2CF482F50E08130CE
:102FF00061F04230510561F0E2EFF0E0411551051A
:1030000081F7849190E0AF01E2CFE2EDF0E0F9CFFB
:10301000EEEBF0E0F6CF61307105A0F011F789E03A
:1030200090E041E251E0D3CF6130710580F0C9F604
:1030300086EB90E043E451E0CACF82E190E041E3C7
:1030400051E0C5CF89E090E048E051E0C0CF84E492
:1030500090E049EF51E0BBCF80E189BD82E189BDBD
:1030600009B400FEFDCF8091D8008F7D8093D800F9
:103070008091E00082608093E0008091E00081FD1B
:10308000FCCF0895AF92BF92CF92DF92FF920F9341
:103090001F93CF93DF936C01EB018A0150D1F82E7F
:1030A000811123C00115110539F0F801808191814A
:1030B000C81BD90BC80ED91EA12CB12C2097A9F082
:1030C0008091E80085FD21C08091E8008E77809393
:1030D000E80001151105A1F0F801808191818A0DA8
:1030E0009B1D8083918385E0F82E8F2DDF91CF91FA
:1030F0001F910F91FF90DF90CF90BF90AF900895F8
:103100001ED18115E9F2F82EF0CFF60181916F0101
:103110008093F10021978FEFA81AB80ACFCFFC0156
:1031200020918102309182022617370720F0611525
:10313000710569F09B0190E02115310571F4911141
:103140000CC08091E80082FF38C080E00895909123
:10315000E8009E779093E800EDCF80917A02811588
:10316000C1F18530C1F18091E80083FD30C08091CC
:10317000E80082FDE6CF8091E80080FFDDCF8091FE
:10318000F3004091F200582F2115310519F0483015
:10319000510558F091E04830510509F090E0409118
:1031A000E8004E774093E800C7CF81918093F1000B
:1031B000215031094F5F5F4FE7CF80917A0281152F
:1031C00041F0853041F08091E80083FFBACF81E083
:1031D000089582E0089583E00895FC012091810222
:1031E000309182022617370720F06115710569F0CA
:1031F0009B0190E02115310571F491110CC0809173
:10320000E80082FF39C080E008958091E8008E7761
:103210008093E800EDCF80917A028115C9F1853065
:10322000C9F18091E80083FD31C08091E80082FD02
:10323000E6CF8091E80080FFDDCF8091F3004091E0
:10324000F200582F2115310519F04830510558F07A
:1032500091E04830510509F090E08091E8008E77C8
:103260008093E800C7CF84918093F100319621507C
:1032700031094F5F5F4FE6CF80917A02811541F0AF
:10328000853041F08091E80083FFB9CF81E0089557
:1032900082E0089583E00895982F973028F08F708A
:1032A0008093E90081E008959093E900242F762F20
:1032B00050E0981731F07091EC002091ED005091A2
:1032C000F00021FD02C09F5FE8CF3091EB003E7F10
:1032D0003093EB003091ED003D7F3093ED00309165
:1032E000EB0031603093EB007093EC002093ED0025
:1032F0005093F0002091EE0027FDE5CF80E0089587
:1033000080917B0287FF13C08091E80082FF06C096
:103310008091E8008B778093E800089580917A028D
:103320008111F2CF089580917A028115D9F38091AD
:10333000E80080FFF8CF8091E8008E77ECCF2091F5
:10334000E4003091E50095E6A9012091EC00822F80
:10335000817020FF06C08091E80080FF06C080E0F9
:1033600008952091E80022FD1AC080917A0281150B
:1033700089F0853089F08091EB0085FD0FC02091A8
:10338000E4003091E50042175307F9F29150E1F65D
:1033900084E0089582E0089583E0089581E008952F
:1033A0005FD066D0E0EEF0E0808181608083E8ED60
:1033B00080818F77808319BCA7EDB0E08C918E7FE0
:1033C0008C9380818F7E8083109279020895CF93B1
:1033D000DF9346D04DD0C8EDD0E088818F778883C9
:1033E00088818068888388818F7D888319BC10924A
:1033F0007A02109276021092780210927702E0EE32
:10340000F0E080818B7F808388818160888342E0C7
:1034100060E080E041DFE1EEF0E080818E7F80833C
:10342000E2EE808181608083808188608083E0EE2D
:1034300080818E7F8083888180618883DF91CF91B6
:103440000895E8EDF0E080818F7E8083E7ED808154
:103450008160808384E082BF81E080937902B7CF6E
:10346000E8EDF0E080818E7F80831092E200089585
:103470001092DA001092E10008951F920F920FB699
:103480000F9211242F933F934F935F936F937F93EA
:103490008F939F93AF93BF93EF93FF938091E1003E
:1034A00082FF0AC08091E20082FF06C08091E100A5
:1034B0008B7F8093E10027D28091DA0080FF18C0D3
:1034C0008091D80080FF14C08091DA008E7F8093B5
:1034D000DA008091D90080FF8FC080E189BD82E150
:1034E00089BD09B400FEFDCF81E080937A023DDC06
:1034F0008091E10080FF18C08091E20080FF14C03D
:103500008091E2008E7F8093E2008091E2008061F2
:103510008093E2008091D80080628093D80019BC2B
:1035200085E080937A0233DC8091E10084FF28C03B
:103530008091E20084FF24C080E189BD82E189BDE1
:1035400009B400FEFDCF8091D8008F7D8093D80014
:103550008091E1008F7E8093E1008091E2008F7E78
:103560008093E2008091E20081608093E20080918C
:103570007602811509F445C084E080937A020EDC5E
:103580008091E10083FF27C08091E20083FF23C088
:103590008091E100877F8093E10082E080937A024E
:1035A000109276028091E1008E7F8093E1008091FD
:1035B000E2008E7F8093E2008091E2008061809340
:1035C000E20042E060E080E067DE8091F000886029
:1035D0008093F000D9DBFF91EF91BF91AF919F9164
:1035E0008F917F916F915F914F913F912F910F90AC
:1035F0000FBE0F901F90189519BC10927A02C1DB74
:1036000077CF8091E30087FF02C083E0B6CF81E0EF
:10361000B4CF1F920F920FB60F9211241F932F93C6
:103620003F934F935F936F937F938F939F93AF934A
:10363000BF93CF93DF93EF93FF93E9EEF0E08081A8
:103640001091EC008F7010FB112717F9182B1082C6
:10365000C0EFD0E08881877F888378941CD0E9EE22
:10366000F0E010828881886088831F701083FF914A
:10367000EF91DF91CF91BF91AF919F918F917F910A
:103680006F915F914F913F912F911F910F900FBEBE
:103690000F901F901895AAE2B0E0E0E5FBE175C13C
:1036A0008BE792E0FC0101962091F100208322E05B
:1036B00083389207B9F78CDB8091E80083FF37C02D
:1036C00080917B0290917C029A3088F5E92FF0E09E
:1036D000ED56F24E45C1803889F0823841F580912F
:1036E0007F028F70873018F58093E9008091EB009E
:1036F00085FB882780F91092E90006C08091780246
:10370000880F90917702892B9091E800977F909392
:10371000E8008093F1001092F1008091E8008E772C
:1037200022C0811115C080917D02813001F180910C
:10373000E80083FF0AC08091E800877F8093E8005B
:103740008091EB0080628093EB00AA96E3E039C1A0
:10375000823069F780917D02811579F01092E9003D
:103760008091E800877F8093E800CADDE0CF933046
:1037700009F080E080937802F1CF80917F028F7012
:10378000282F2150263098F68093E9002091EB00F5
:1037900020FFE4CF933031F48091EB00806280937E
:1037A000EB00DCCF9091EB0090619093EB0021E077
:1037B00001C0220F8A95EAF72093EA001092EA00EE
:1037C0008091EB008860EBCF8111B1CF80917D02B9
:1037D0008F77182F8091E3008078812B8093E3000E
:1037E0008091E800877F8093E8008ADD8091E8007F
:1037F00080FFFCCF8091E30080688093E30083E04A
:10380000111101C082E080937A0291CF80588230FA
:1038100008F08DCF80917D0290917E028C3D23E057
:10382000920789F583E08A838AE289834FB7F89407
:10383000DE01139620E03EE051E2E32FF0E05093EA
:103840005700849120FF03C082958F703F5F8F7077
:103850008A30B8F0895C8D931D922F5F243169F70F
:103860004FBF8091E800877F8093E8006AE270E0B4
:10387000CE01019654DC8091E8008B778093E800BC
:1038800056CF805DE8CF60917F0270918002AE01DB
:103890004F5F5F4F86DBBC01892B09F448CF9091C5
:1038A000E800977F9093E80089819A8196DCE3CFC6
:1038B000803809F03CCF8091E800877F8093E80052
:1038C000809176028093F10028CF811130CF9091C2
:1038D0007D02923008F02BCF8091E800877F8093A3
:1038E000E800909376020CDD80917602811529F034
:1038F00084E080937A025BDA1ACF8091E30087FD3F
:10390000F7CF81E0F6CF0895CF9380917A028115A9
:1039100091F08091E900C091EC008F70C0FBCC2742
:10392000C7F9C82B1092E9008091E80083FDB3DE4F
:10393000CF70C093E900CF91089597FB072E16F43E
:10394000009406D077FD08D048D007FC05D03EF49F
:10395000909581959F4F0895709561957F4F08953B
:10396000EE0FFF1F0590F491E02D09942F923F92E6
:103970004F925F926F927F928F929F92AF92BF927F
:10398000CF92DF92EF92FF920F931F93CF93DF932B
:10399000CDB7DEB7CA1BDB0B0FB6F894DEBF0FBE88
:1039A000CDBF09942A88398848885F846E847D84D5
:1039B0008C849B84AA84B984C884DF80EE80FD80D7
:1039C0000C811B81AA81B981CE0FD11D0FB6F8944D
:1039D000DEBF0FBECDBFED010895AA1BBB1B51E199
:1039E00007C0AA1FBB1FA617B70710F0A61BB70B6F
:1039F000881F991F5A95A9F780959095BC01CD0114
:103A00000895FB01DC0104C08D910190801921F41F
:103A100041505040C8F7881B990B0895F999FECF83
:103A200092BD81BDF89A992780B50895A8E1B0E0CC
:103A300042E050E020C0262FF999FECF92BD81BD13
:103A4000F89A019700B4021639F01FBA20BD0FB6DC
:103A5000F894FA9AF99A0FBE08950396272FECDF8F
:103A6000EADF252FE9DF242FE7CF0196272FE4DFB8
:103A7000E2CFDC01CB01FC01F999FECF06C0F2BD1B
:103A8000E1BDF89A319600B40D9241505040B8F71C
:103A90000895F894FFCF7F037F03B603B6030D04A8
:103AA0002904A703A7032D049F04AC04AC04DA0F78
:103AB0004710E20FAC0FB00FE60FB40FEA0FF60F8E
:103AC000C00F4010C40FFA0FC80FFE0F2310CC0F09
:103AD00002102A10D20F08101010B80FEE0FBC0FF2
:103AE000F20FD60F0C101A1033103E10A60FDE0F77
:103AF0004E10E710EC10EE10F31003110311031138
:103B000003110311031103110311F510F910FC1037
:103B10000111101116111A1126132C13171320134B
:103B2000321338133E136B1B911B971B911B971B72
:0A3B3000E41B061C971B581C651CC3
:103B3A000C022C02280850011E0A14010000010080
:103B4A004E15A1169C1697169216E200E900EA0095
:103B5A00B500B600B700CD008301CC008A019201FE
:103B6A0094012102230224022502260227022A02A4
:103B7A00B300B4006F0070009F01CB019F02A00246
:103B8A00E200E900EA00B500B600B700CD00830103
:103B9A00CC008A0192019401210223022402250207
:103BAA00260227022A02B300B4006F0070009F01A8
:0C3BBA00CB019F02A0029190946697C678
:00000001FF
